{
	"data": {
		"bytecode": {
			"linkReferences": {},
			"object": "6080604052348015600f57600080fd5b50608d8061001e6000396000f3fe6080604052348015600f57600080fd5b506004361060325760003560e01c806312065fe014603757806318b04c8a14604a575b600080fd5b6040514781526020015b60405180910390f35b604051308152602001604156fea264697066735822122090d7377f71f4181e6f70535d8338a2db73c4769fb6ac96fe38df7196fb84c23f64736f6c63430008070033",
			"opcodes": "PUSH1 0x80 PUSH1 0x40 MSTORE CALLVALUE DUP1 ISZERO PUSH1 0xF JUMPI PUSH1 0x0 DUP1 REVERT JUMPDEST POP PUSH1 0x8D DUP1 PUSH2 0x1E PUSH1 0x0 CODECOPY PUSH1 0x0 RETURN INVALID PUSH1 0x80 PUSH1 0x40 MSTORE CALLVALUE DUP1 ISZERO PUSH1 0xF JUMPI PUSH1 0x0 DUP1 REVERT JUMPDEST POP PUSH1 0x4 CALLDATASIZE LT PUSH1 0x32 JUMPI PUSH1 0x0 CALLDATALOAD PUSH1 0xE0 SHR DUP1 PUSH4 0x12065FE0 EQ PUSH1 0x37 JUMPI DUP1 PUSH4 0x18B04C8A EQ PUSH1 0x4A JUMPI JUMPDEST PUSH1 0x0 DUP1 REVERT JUMPDEST PUSH1 0x40 MLOAD SELFBALANCE DUP2 MSTORE PUSH1 0x20 ADD JUMPDEST PUSH1 0x40 MLOAD DUP1 SWAP2 SUB SWAP1 RETURN JUMPDEST PUSH1 0x40 MLOAD ADDRESS DUP2 MSTORE PUSH1 0x20 ADD PUSH1 0x41 JUMP INVALID LOG2 PUSH5 0x6970667358 0x22 SLT KECCAK256 SWAP1 0xD7 CALLDATACOPY PUSH32 0x71F4181E6F70535D8338A2DB73C4769FB6AC96FE38DF7196FB84C23F64736F6C PUSH4 0x43000807 STOP CALLER "
		},
		"gasEstimates": {
			"creation": {
				"codeDepositCost": "28200",
				"executionCost": "81",
				"totalCost": "28281"
			},
			"external": {
				"getBalance()": "146",
				"viewAddress()": "176"
			}
		},
		"methodIdentifiers": {
			"getBalance()": "12065fe0",
			"viewAddress()": "18b04c8a"
		}
	},
	"abi": [
		{
			"inputs": [],
			"name": "getBalance",
			"outputs": [
				{
					"internalType": "uint256",
					"name": "",
					"type": "uint256"
				}
			],
			"stateMutability": "view",
			"type": "function"
		},
		{
			"inputs": [],
			"name": "viewAddress",
			"outputs": [
				{
					"internalType": "address",
					"name": "",
					"type": "address"
				}
			],
			"stateMutability": "view",
			"type": "function"
		}
	]
}